:100000000C942A000C9434000C9434000C943400AA
:100010000C9434000C9434000C9434000C94340090
:100020000C9434000C9434000C9434000C94340080
:100030000C9434000C9434000C9434000C94340070
:100040000C9434000C9434000C9434000C94340060
:100050000C94340011241FBECFE5D8E0DEBFCDBF25
:100060000E9494000C94C1010C940000CF93C82FFF
:1000700040E060E082E00E94250140E061E082E033
:100080000E9425016C2F83E00E949F0141E062E005
:1000900082E00E9425018FE99FE00197F1F700C0FF
:1000A000000040E062E082E00E9425018FE99FE0CD
:1000B0000197F1F700C00000CF9108952FE788E382
:1000C00091E0215080409040E1F700C0000041E005
:1000D00064E082E00E94250180E30E9436008FECFC
:1000E00097E00197F1F700C0000080E30E9436001E
:1000F0008FEC97E00197F1F700C000008CE00E94C0
:1001000036008FEC97E00197F1F700C0000081E026
:100110000E9436008FEC97E00197F1F700C00000D5
:1001200083E00E94360008950E94A6000E94AF015D
:100130000E945E0080E08CBFEFE0F7E23197F1F7BC
:1001400000C000008F5F8F3FB1F7F4CF1ABA17BA23
:1001500014BA11BA0895683008F076C0813019F1E8
:1001600030F08230E1F1833009F454C00895411138
:100170000CC02AB381E090E002C0880F991F6A95F5
:10018000E2F7809582238ABB0895413009F05CC074
:100190002AB381E090E002C0880F991F6A95E2F7C8
:1001A000822B8ABB089541110CC027B381E090E0F7
:1001B00002C0880F991F6A95E2F78095822387BB5A
:1001C0000895413009F040C027B381E090E002C0BB
:1001D000880F991F6A95E2F7822B87BB089541111A
:1001E0000CC024B381E090E002C0880F991F6A958B
:1001F000E2F78095822384BB0895413029F524B32A
:1002000081E090E002C0880F991F6A95E2F7822B87
:1002100084BB089541110CC021B381E090E002C07D
:10022000880F991F6A95E2F78095822381BB089514
:10023000413051F421B381E090E002C0880F991F52
:100240006A95E2F7822B81BB0895683008F076C08A
:10025000813019F130F08230E1F1833009F454C07B
:10026000089541110CC02BB381E090E002C0880FCB
:10027000991F6A95E2F7809582238BBB08954130E0
:1002800009F05CC02BB381E090E002C0880F991F99
:100290006A95E2F7822B8BBB089541110CC028B3FD
:1002A00081E090E002C0880F991F6A95E2F780957F
:1002B000822388BB0895413009F040C028B381E013
:1002C00090E002C0880F991F6A95E2F7822B88BBE5
:1002D000089541110CC025B381E090E002C0880F61
:1002E000991F6A95E2F78095822385BB0895413076
:1002F00029F525B381E090E002C0880F991F6A9527
:10030000E2F7822B85BB089541110CC022B381E036
:1003100090E002C0880F991F6A95E2F780958223CA
:1003200082BB0895413051F422B381E090E002C0D5
:10033000880F991F6A95E2F7822B82BB089581305E
:1003400041F028F0823039F0833039F008956BBBEA
:10035000089568BB089565BB089562BB089583B78F
:10036000806483BF83B7886083BF83B7806283BFA5
:1003700083B7816083BF41E063E081E00E94AB000E
:060380000895F894FFCF80
:00000001FF
